{
  "_format": "hh-sol-artifact-1",
  "contractName": "TradingAlgoAVS",
  "sourceName": "contracts/TradingAlgoAVS.sol",
  "abi": [
    {
      "anonymous": false,
      "inputs": [
        {
          "indexed": true,
          "internalType": "uint256",
          "name": "strategyId",
          "type": "uint256"
        },
        {
          "indexed": true,
          "internalType": "address",
          "name": "provider",
          "type": "address"
        },
        {
          "indexed": false,
          "internalType": "uint256",
          "name": "subscriptionFee",
          "type": "uint256"
        },
        {
          "indexed": false,
          "internalType": "string",
          "name": "subscriptionPeriod",
          "type": "string"
        },
        {
          "indexed": false,
          "internalType": "string",
          "name": "strategyUid",
          "type": "string"
        },
        {
          "indexed": false,
          "internalType": "uint256",
          "name": "roi",
          "type": "uint256"
        },
        {
          "indexed": false,
          "internalType": "uint256",
          "name": "profitability",
          "type": "uint256"
        },
        {
          "indexed": false,
          "internalType": "uint256",
          "name": "risk",
          "type": "uint256"
        }
      ],
      "name": "StrategyCreated",
      "type": "event"
    },
    {
      "anonymous": false,
      "inputs": [
        {
          "indexed": true,
          "internalType": "uint256",
          "name": "strategyId",
          "type": "uint256"
        },
        {
          "indexed": true,
          "internalType": "address",
          "name": "subscriber",
          "type": "address"
        },
        {
          "indexed": false,
          "internalType": "uint256",
          "name": "subscriptionFee",
          "type": "uint256"
        },
        {
          "indexed": false,
          "internalType": "string",
          "name": "subscriptionPeriod",
          "type": "string"
        },
        {
          "indexed": false,
          "internalType": "uint256",
          "name": "startTime",
          "type": "uint256"
        },
        {
          "indexed": false,
          "internalType": "uint256",
          "name": "endTime",
          "type": "uint256"
        }
      ],
      "name": "StrategySubscribed",
      "type": "event"
    },
    {
      "anonymous": false,
      "inputs": [
        {
          "indexed": true,
          "internalType": "uint256",
          "name": "strategyId",
          "type": "uint256"
        },
        {
          "indexed": true,
          "internalType": "address",
          "name": "subscriber",
          "type": "address"
        }
      ],
      "name": "StrategyUnsubscribed",
      "type": "event"
    },
    {
      "inputs": [
        {
          "internalType": "uint256",
          "name": "",
          "type": "uint256"
        }
      ],
      "name": "activeSubscribersCount",
      "outputs": [
        {
          "internalType": "uint256",
          "name": "",
          "type": "uint256"
        }
      ],
      "stateMutability": "view",
      "type": "function"
    },
    {
      "inputs": [
        {
          "internalType": "string",
          "name": "_strategyUid",
          "type": "string"
        },
        {
          "internalType": "uint256",
          "name": "_subscriptionFee",
          "type": "uint256"
        },
        {
          "internalType": "string",
          "name": "_subscriptionPeriod",
          "type": "string"
        },
        {
          "internalType": "uint256",
          "name": "_roi",
          "type": "uint256"
        },
        {
          "internalType": "uint256",
          "name": "_profitability",
          "type": "uint256"
        },
        {
          "internalType": "uint256",
          "name": "_risk",
          "type": "uint256"
        }
      ],
      "name": "createStrategy",
      "outputs": [],
      "stateMutability": "nonpayable",
      "type": "function"
    },
    {
      "inputs": [
        {
          "internalType": "uint256",
          "name": "_id",
          "type": "uint256"
        }
      ],
      "name": "getActiveSubscribersCount",
      "outputs": [
        {
          "internalType": "uint256",
          "name": "",
          "type": "uint256"
        }
      ],
      "stateMutability": "view",
      "type": "function"
    },
    {
      "inputs": [],
      "name": "getAllStrategies",
      "outputs": [
        {
          "components": [
            {
              "internalType": "uint256",
              "name": "id",
              "type": "uint256"
            },
            {
              "internalType": "address",
              "name": "provider",
              "type": "address"
            },
            {
              "internalType": "uint256",
              "name": "subscriptionFee",
              "type": "uint256"
            },
            {
              "internalType": "string",
              "name": "subscriptionPeriod",
              "type": "string"
            },
            {
              "internalType": "string",
              "name": "strategyUid",
              "type": "string"
            },
            {
              "internalType": "uint256",
              "name": "roi",
              "type": "uint256"
            },
            {
              "internalType": "uint256",
              "name": "profitability",
              "type": "uint256"
            },
            {
              "internalType": "uint256",
              "name": "risk",
              "type": "uint256"
            },
            {
              "internalType": "bool",
              "name": "active",
              "type": "bool"
            }
          ],
          "internalType": "struct TradingAlgoAVS.Strategy[]",
          "name": "",
          "type": "tuple[]"
        }
      ],
      "stateMutability": "view",
      "type": "function"
    },
    {
      "inputs": [],
      "name": "getMyStrategies",
      "outputs": [
        {
          "components": [
            {
              "internalType": "uint256",
              "name": "id",
              "type": "uint256"
            },
            {
              "internalType": "address",
              "name": "provider",
              "type": "address"
            },
            {
              "internalType": "uint256",
              "name": "subscriptionFee",
              "type": "uint256"
            },
            {
              "internalType": "string",
              "name": "subscriptionPeriod",
              "type": "string"
            },
            {
              "internalType": "string",
              "name": "strategyUid",
              "type": "string"
            },
            {
              "internalType": "uint256",
              "name": "roi",
              "type": "uint256"
            },
            {
              "internalType": "uint256",
              "name": "profitability",
              "type": "uint256"
            },
            {
              "internalType": "uint256",
              "name": "risk",
              "type": "uint256"
            },
            {
              "internalType": "bool",
              "name": "active",
              "type": "bool"
            }
          ],
          "internalType": "struct TradingAlgoAVS.Strategy[]",
          "name": "",
          "type": "tuple[]"
        }
      ],
      "stateMutability": "view",
      "type": "function"
    },
    {
      "inputs": [
        {
          "internalType": "uint256",
          "name": "_id",
          "type": "uint256"
        }
      ],
      "name": "getStrategy",
      "outputs": [
        {
          "components": [
            {
              "internalType": "uint256",
              "name": "id",
              "type": "uint256"
            },
            {
              "internalType": "address",
              "name": "provider",
              "type": "address"
            },
            {
              "internalType": "uint256",
              "name": "subscriptionFee",
              "type": "uint256"
            },
            {
              "internalType": "string",
              "name": "subscriptionPeriod",
              "type": "string"
            },
            {
              "internalType": "string",
              "name": "strategyUid",
              "type": "string"
            },
            {
              "internalType": "uint256",
              "name": "roi",
              "type": "uint256"
            },
            {
              "internalType": "uint256",
              "name": "profitability",
              "type": "uint256"
            },
            {
              "internalType": "uint256",
              "name": "risk",
              "type": "uint256"
            },
            {
              "internalType": "bool",
              "name": "active",
              "type": "bool"
            }
          ],
          "internalType": "struct TradingAlgoAVS.Strategy",
          "name": "",
          "type": "tuple"
        }
      ],
      "stateMutability": "view",
      "type": "function"
    },
    {
      "inputs": [
        {
          "internalType": "uint256",
          "name": "_id",
          "type": "uint256"
        }
      ],
      "name": "getTotalSubscribersCount",
      "outputs": [
        {
          "internalType": "uint256",
          "name": "",
          "type": "uint256"
        }
      ],
      "stateMutability": "view",
      "type": "function"
    },
    {
      "inputs": [
        {
          "internalType": "address",
          "name": "_subscriber",
          "type": "address"
        }
      ],
      "name": "getUserSubscriptions",
      "outputs": [
        {
          "internalType": "uint256[]",
          "name": "",
          "type": "uint256[]"
        }
      ],
      "stateMutability": "view",
      "type": "function"
    },
    {
      "inputs": [
        {
          "internalType": "address",
          "name": "_subscriber",
          "type": "address"
        },
        {
          "internalType": "uint256",
          "name": "_id",
          "type": "uint256"
        }
      ],
      "name": "isSubscribed",
      "outputs": [
        {
          "internalType": "bool",
          "name": "",
          "type": "bool"
        }
      ],
      "stateMutability": "view",
      "type": "function"
    },
    {
      "inputs": [
        {
          "internalType": "uint256",
          "name": "",
          "type": "uint256"
        }
      ],
      "name": "strategies",
      "outputs": [
        {
          "internalType": "uint256",
          "name": "id",
          "type": "uint256"
        },
        {
          "internalType": "address",
          "name": "provider",
          "type": "address"
        },
        {
          "internalType": "uint256",
          "name": "subscriptionFee",
          "type": "uint256"
        },
        {
          "internalType": "string",
          "name": "subscriptionPeriod",
          "type": "string"
        },
        {
          "internalType": "string",
          "name": "strategyUid",
          "type": "string"
        },
        {
          "internalType": "uint256",
          "name": "roi",
          "type": "uint256"
        },
        {
          "internalType": "uint256",
          "name": "profitability",
          "type": "uint256"
        },
        {
          "internalType": "uint256",
          "name": "risk",
          "type": "uint256"
        },
        {
          "internalType": "bool",
          "name": "active",
          "type": "bool"
        }
      ],
      "stateMutability": "view",
      "type": "function"
    },
    {
      "inputs": [
        {
          "internalType": "uint256",
          "name": "_id",
          "type": "uint256"
        }
      ],
      "name": "subscribeStrategy",
      "outputs": [],
      "stateMutability": "payable",
      "type": "function"
    },
    {
      "inputs": [
        {
          "internalType": "address",
          "name": "",
          "type": "address"
        },
        {
          "internalType": "uint256",
          "name": "",
          "type": "uint256"
        }
      ],
      "name": "subscriptions",
      "outputs": [
        {
          "internalType": "uint256",
          "name": "strategyId",
          "type": "uint256"
        },
        {
          "internalType": "address",
          "name": "subscriber",
          "type": "address"
        },
        {
          "internalType": "uint256",
          "name": "startTime",
          "type": "uint256"
        },
        {
          "internalType": "uint256",
          "name": "endTime",
          "type": "uint256"
        },
        {
          "internalType": "bool",
          "name": "active",
          "type": "bool"
        }
      ],
      "stateMutability": "view",
      "type": "function"
    },
    {
      "inputs": [
        {
          "internalType": "uint256",
          "name": "",
          "type": "uint256"
        }
      ],
      "name": "totalSubscribersCount",
      "outputs": [
        {
          "internalType": "uint256",
          "name": "",
          "type": "uint256"
        }
      ],
      "stateMutability": "view",
      "type": "function"
    },
    {
      "inputs": [
        {
          "internalType": "uint256",
          "name": "_id",
          "type": "uint256"
        }
      ],
      "name": "unsubscribeStrategy",
      "outputs": [],
      "stateMutability": "nonpayable",
      "type": "function"
    },
    {
      "inputs": [
        {
          "internalType": "address",
          "name": "",
          "type": "address"
        },
        {
          "internalType": "uint256",
          "name": "",
          "type": "uint256"
        }
      ],
      "name": "userSubscriptions",
      "outputs": [
        {
          "internalType": "uint256",
          "name": "",
          "type": "uint256"
        }
      ],
      "stateMutability": "view",
      "type": "function"
    }
  ],
  "bytecode": "0x6080604052348015600f57600080fd5b50612e568061001f6000396000f3fe6080604052600436106100e85760003560e01c806399c238111161008a578063cfc0cc3411610059578063cfc0cc3414610323578063d574ea3d14610360578063e14280e6146103a5578063e9719852146103e2576100e8565b806399c2381114610262578063acfea7701461029f578063c3b28864146102bb578063c95d6edc146102e6576100e8565b8063482c6934116100c6578063482c6934146101905780634c6c1abc146101cd578063623da3d1146101f65780638534e78714610237576100e8565b806313cf6211146100ed5780632e6ca5881461011657806336867ae614610153575b600080fd5b3480156100f957600080fd5b50610114600480360381019061010f9190611d2b565b61041f565b005b34801561012257600080fd5b5061013d60048036038101906101389190611e4e565b610783565b60405161014a9190611f39565b60405180910390f35b34801561015f57600080fd5b5061017a60048036038101906101759190611f5b565b61081a565b6040516101879190611fb6565b60405180910390f35b34801561019c57600080fd5b506101b760048036038101906101b29190611fd1565b610885565b6040516101c4919061200d565b60405180910390f35b3480156101d957600080fd5b506101f460048036038101906101ef9190611fd1565b61089d565b005b34801561020257600080fd5b5061021d60048036038101906102189190611f5b565b610a19565b60405161022e959493929190612037565b60405180910390f35b34801561024357600080fd5b5061024c610a89565b60405161025991906122b5565b60405180910390f35b34801561026e57600080fd5b5061028960048036038101906102849190611fd1565b610e18565b604051610296919061200d565b60405180910390f35b6102b960048036038101906102b49190611fd1565b610e30565b005b3480156102c757600080fd5b506102d0611343565b6040516102dd91906122b5565b60405180910390f35b3480156102f257600080fd5b5061030d60048036038101906103089190611f5b565b6115c4565b60405161031a919061200d565b60405180910390f35b34801561032f57600080fd5b5061034a60048036038101906103459190611fd1565b6115f5565b60405161035791906123a3565b60405180910390f35b34801561036c57600080fd5b5061038760048036038101906103829190611fd1565b6117ea565b60405161039c9998979695949392919061240f565b60405180910390f35b3480156103b157600080fd5b506103cc60048036038101906103c79190611fd1565b611975565b6040516103d9919061200d565b60405180910390f35b3480156103ee57600080fd5b5061040960048036038101906104049190611fd1565b611992565b604051610416919061200d565b60405180910390f35b61045e6040518060400160405280601e81526020017f4372656174696e672073747261746567792077697468205549443a2025730000815250876119af565b61049d6040518060400160405280601281526020017f53656e64657220416464726573733a202573000000000000000000000000000081525033611a4b565b6040516020016104ac90612501565b60405160208183030381529060405280519060200120846040516020016104d39190612547565b60405160208183030381529060405280519060200120148061053e57506040516020016104ff906125aa565b60405160208183030381529060405280519060200120846040516020016105269190612547565b60405160208183030381529060405280519060200120145b8061059257506040516020016105539061260b565b604051602081830303815290604052805190602001208460405160200161057a9190612547565b60405160208183030381529060405280519060200120145b6105d1576040517f08c379a00000000000000000000000000000000000000000000000000000000081526004016105c89061266c565b60405180910390fd5b60405180610120016040528060005481526020013373ffffffffffffffffffffffffffffffffffffffff1681526020018681526020018581526020018781526020018481526020018381526020018281526020016001151581525060016000805481526020019081526020016000206000820151816000015560208201518160010160006101000a81548173ffffffffffffffffffffffffffffffffffffffff021916908373ffffffffffffffffffffffffffffffffffffffff1602179055506040820151816002015560608201518160030190816106b09190612898565b5060808201518160040190816106c69190612898565b5060a0820151816005015560c0820151816006015560e082015181600701556101008201518160080160006101000a81548160ff0219169083151502179055509050503373ffffffffffffffffffffffffffffffffffffffff166000547f4d33db09ba257b965787875294cb3ccc93f4e0cac7ddc5d287960399425ab5e187878a88888860405161075c9695949392919061296a565b60405180910390a360008081548092919061077690612a08565b9190505550505050505050565b6060600360008373ffffffffffffffffffffffffffffffffffffffff1673ffffffffffffffffffffffffffffffffffffffff16815260200190815260200160002080548060200260200160405190810160405280929190818152602001828054801561080e57602002820191906000526020600020905b8154815260200190600101908083116107fa575b50505050509050919050565b6000600260008473ffffffffffffffffffffffffffffffffffffffff1673ffffffffffffffffffffffffffffffffffffffff168152602001908152602001600020600083815260200190815260200160002060040160009054906101000a900460ff16905092915050565b60046020528060005260406000206000915090505481565b600260003373ffffffffffffffffffffffffffffffffffffffff1673ffffffffffffffffffffffffffffffffffffffff168152602001908152602001600020600082815260200190815260200160002060040160009054906101000a900460ff1661093d576040517f08c379a000000000000000000000000000000000000000000000000000000000815260040161093490612a9c565b60405180910390fd5b6000600260003373ffffffffffffffffffffffffffffffffffffffff1673ffffffffffffffffffffffffffffffffffffffff168152602001908152602001600020600083815260200190815260200160002060040160006101000a81548160ff0219169083151502179055506004600082815260200190815260200160002060008154809291906109cd90612abc565b91905055503373ffffffffffffffffffffffffffffffffffffffff16817f435935bd93200402ce9854ea771f59cbf17f38dff88a3f2e3a2c10708125049960405160405180910390a350565b6002602052816000526040600020602052806000526040600020600091509150508060000154908060010160009054906101000a900473ffffffffffffffffffffffffffffffffffffffff16908060020154908060030154908060040160009054906101000a900460ff16905085565b60606000805b600054811015610b1e573373ffffffffffffffffffffffffffffffffffffffff166001600083815260200190815260200160002060010160009054906101000a900473ffffffffffffffffffffffffffffffffffffffff1673ffffffffffffffffffffffffffffffffffffffff1603610b11578180610b0d90612a08565b9250505b8080600101915050610a8f565b5060008167ffffffffffffffff811115610b3b57610b3a611bca565b5b604051908082528060200260200182016040528015610b7457816020015b610b61611b2d565b815260200190600190039081610b595790505b5090506000805b600054811015610e0e573373ffffffffffffffffffffffffffffffffffffffff166001600083815260200190815260200160002060010160009054906101000a900473ffffffffffffffffffffffffffffffffffffffff1673ffffffffffffffffffffffffffffffffffffffff1603610e01576001600082815260200190815260200160002060405180610120016040529081600082015481526020016001820160009054906101000a900473ffffffffffffffffffffffffffffffffffffffff1673ffffffffffffffffffffffffffffffffffffffff1673ffffffffffffffffffffffffffffffffffffffff16815260200160028201548152602001600382018054610c87906126bb565b80601f0160208091040260200160405190810160405280929190818152602001828054610cb3906126bb565b8015610d005780601f10610cd557610100808354040283529160200191610d00565b820191906000526020600020905b815481529060010190602001808311610ce357829003601f168201915b50505050508152602001600482018054610d19906126bb565b80601f0160208091040260200160405190810160405280929190818152602001828054610d45906126bb565b8015610d925780601f10610d6757610100808354040283529160200191610d92565b820191906000526020600020905b815481529060010190602001808311610d7557829003601f168201915b505050505081526020016005820154815260200160068201548152602001600782015481526020016008820160009054906101000a900460ff161515151581525050838381518110610de757610de6612ae5565b5b60200260200101819052508180610dfd90612a08565b9250505b8080600101915050610b7b565b5081935050505090565b60056020528060005260406000206000915090505481565b600060016000838152602001908152602001600020905080600201543414610e8d576040517f08c379a0000000000000000000000000000000000000000000000000000000008152600401610e8490612b60565b60405180910390fd5b60001515600260003373ffffffffffffffffffffffffffffffffffffffff1673ffffffffffffffffffffffffffffffffffffffff168152602001908152602001600020600084815260200190815260200160002060040160009054906101000a900460ff16151514610f34576040517f08c379a0000000000000000000000000000000000000000000000000000000008152600401610f2b90612bcc565b60405180910390fd5b6000604051602001610f4590612501565b6040516020818303038152906040528051906020012082600301604051602001610f6f9190612c6f565b6040516020818303038152906040528051906020012003610f9557620151809050611051565b604051602001610fa4906125aa565b6040516020818303038152906040528051906020012082600301604051602001610fce9190612c6f565b6040516020818303038152906040528051906020012003610ff45762093a809050611050565b6040516020016110039061260b565b604051602081830303815290604052805190602001208260030160405160200161102d9190612c6f565b604051602081830303815290604052805190602001200361104f5762278d0090505b5b5b6000429050600082826110649190612c86565b90506040518060a001604052808681526020013373ffffffffffffffffffffffffffffffffffffffff16815260200183815260200182815260200160011515815250600260003373ffffffffffffffffffffffffffffffffffffffff1673ffffffffffffffffffffffffffffffffffffffff16815260200190815260200160002060008781526020019081526020016000206000820151816000015560208201518160010160006101000a81548173ffffffffffffffffffffffffffffffffffffffff021916908373ffffffffffffffffffffffffffffffffffffffff160217905550604082015181600201556060820151816003015560808201518160040160006101000a81548160ff021916908315150217905550905050600360003373ffffffffffffffffffffffffffffffffffffffff1673ffffffffffffffffffffffffffffffffffffffff16815260200190815260200160002085908060018154018082558091505060019003906000526020600020016000909190919091505560046000868152602001908152602001600020600081548092919061120890612a08565b919050555060056000868152602001908152602001600020600081548092919061123190612a08565b91905055508360010160009054906101000a900473ffffffffffffffffffffffffffffffffffffffff1673ffffffffffffffffffffffffffffffffffffffff166108fc349081150290604051600060405180830381858888f193505050501580156112a0573d6000803e3d6000fd5b506112e06040518060400160405280601681526020017f5375627363726962657220416464726573733a2025730000000000000000000081525033611a4b565b3373ffffffffffffffffffffffffffffffffffffffff16857f5e264949ccc2e870973979d6a494bf9d02775c971509da594d1920e59159bd3086600201548760030186866040516113349493929190612d3e565b60405180910390a35050505050565b60606000805467ffffffffffffffff81111561136257611361611bca565b5b60405190808252806020026020018201604052801561139b57816020015b611388611b2d565b8152602001906001900390816113805790505b50905060005b6000548110156115bc576001600082815260200190815260200160002060405180610120016040529081600082015481526020016001820160009054906101000a900473ffffffffffffffffffffffffffffffffffffffff1673ffffffffffffffffffffffffffffffffffffffff1673ffffffffffffffffffffffffffffffffffffffff16815260200160028201548152602001600382018054611444906126bb565b80601f0160208091040260200160405190810160405280929190818152602001828054611470906126bb565b80156114bd5780601f10611492576101008083540402835291602001916114bd565b820191906000526020600020905b8154815290600101906020018083116114a057829003601f168201915b505050505081526020016004820180546114d6906126bb565b80601f0160208091040260200160405190810160405280929190818152602001828054611502906126bb565b801561154f5780601f106115245761010080835404028352916020019161154f565b820191906000526020600020905b81548152906001019060200180831161153257829003601f168201915b505050505081526020016005820154815260200160068201548152602001600782015481526020016008820160009054906101000a900460ff1615151515815250508282815181106115a4576115a3612ae5565b5b602002602001018190525080806001019150506113a1565b508091505090565b600360205281600052604060002081815481106115e057600080fd5b90600052602060002001600091509150505481565b6115fd611b2d565b6001600083815260200190815260200160002060405180610120016040529081600082015481526020016001820160009054906101000a900473ffffffffffffffffffffffffffffffffffffffff1673ffffffffffffffffffffffffffffffffffffffff1673ffffffffffffffffffffffffffffffffffffffff16815260200160028201548152602001600382018054611696906126bb565b80601f01602080910402602001604051908101604052809291908181526020018280546116c2906126bb565b801561170f5780601f106116e45761010080835404028352916020019161170f565b820191906000526020600020905b8154815290600101906020018083116116f257829003601f168201915b50505050508152602001600482018054611728906126bb565b80601f0160208091040260200160405190810160405280929190818152602001828054611754906126bb565b80156117a15780601f10611776576101008083540402835291602001916117a1565b820191906000526020600020905b81548152906001019060200180831161178457829003601f168201915b505050505081526020016005820154815260200160068201548152602001600782015481526020016008820160009054906101000a900460ff1615151515815250509050919050565b60016020528060005260406000206000915090508060000154908060010160009054906101000a900473ffffffffffffffffffffffffffffffffffffffff169080600201549080600301805461183f906126bb565b80601f016020809104026020016040519081016040528092919081815260200182805461186b906126bb565b80156118b85780601f1061188d576101008083540402835291602001916118b8565b820191906000526020600020905b81548152906001019060200180831161189b57829003601f168201915b5050505050908060040180546118cd906126bb565b80601f01602080910402602001604051908101604052809291908181526020018280546118f9906126bb565b80156119465780601f1061191b57610100808354040283529160200191611946565b820191906000526020600020905b81548152906001019060200180831161192957829003601f168201915b5050505050908060050154908060060154908060070154908060080160009054906101000a900460ff16905089565b600060056000838152602001908152602001600020549050919050565b600060046000838152602001908152602001600020549050919050565b611a4782826040516024016119c5929190612d8a565b6040516020818303038152906040527f4b5c4277000000000000000000000000000000000000000000000000000000007bffffffffffffffffffffffffffffffffffffffffffffffffffffffff19166020820180517bffffffffffffffffffffffffffffffffffffffffffffffffffffffff8381831617835250505050611ae7565b5050565b611ae38282604051602401611a61929190612dc1565b6040516020818303038152906040527f319af333000000000000000000000000000000000000000000000000000000007bffffffffffffffffffffffffffffffffffffffffffffffffffffffff19166020820180517bffffffffffffffffffffffffffffffffffffffffffffffffffffffff8381831617835250505050611ae7565b5050565b611afe81611af6611b01611b22565b63ffffffff16565b50565b60006a636f6e736f6c652e6c6f679050600080835160208501845afa505050565b611b91819050919050565b60405180610120016040528060008152602001600073ffffffffffffffffffffffffffffffffffffffff1681526020016000815260200160608152602001606081526020016000815260200160008152602001600081526020016000151581525090565b611b99612df1565b565b6000604051905090565b600080fd5b600080fd5b600080fd5b600080fd5b6000601f19601f8301169050919050565b7f4e487b7100000000000000000000000000000000000000000000000000000000600052604160045260246000fd5b611c0282611bb9565b810181811067ffffffffffffffff82111715611c2157611c20611bca565b5b80604052505050565b6000611c34611b9b565b9050611c408282611bf9565b919050565b600067ffffffffffffffff821115611c6057611c5f611bca565b5b611c6982611bb9565b9050602081019050919050565b82818337600083830152505050565b6000611c98611c9384611c45565b611c2a565b905082815260208101848484011115611cb457611cb3611bb4565b5b611cbf848285611c76565b509392505050565b600082601f830112611cdc57611cdb611baf565b5b8135611cec848260208601611c85565b91505092915050565b6000819050919050565b611d0881611cf5565b8114611d1357600080fd5b50565b600081359050611d2581611cff565b92915050565b60008060008060008060c08789031215611d4857611d47611ba5565b5b600087013567ffffffffffffffff811115611d6657611d65611baa565b5b611d7289828a01611cc7565b9650506020611d8389828a01611d16565b955050604087013567ffffffffffffffff811115611da457611da3611baa565b5b611db089828a01611cc7565b9450506060611dc189828a01611d16565b9350506080611dd289828a01611d16565b92505060a0611de389828a01611d16565b9150509295509295509295565b600073ffffffffffffffffffffffffffffffffffffffff82169050919050565b6000611e1b82611df0565b9050919050565b611e2b81611e10565b8114611e3657600080fd5b50565b600081359050611e4881611e22565b92915050565b600060208284031215611e6457611e63611ba5565b5b6000611e7284828501611e39565b91505092915050565b600081519050919050565b600082825260208201905092915050565b6000819050602082019050919050565b611eb081611cf5565b82525050565b6000611ec28383611ea7565b60208301905092915050565b6000602082019050919050565b6000611ee682611e7b565b611ef08185611e86565b9350611efb83611e97565b8060005b83811015611f2c578151611f138882611eb6565b9750611f1e83611ece565b925050600181019050611eff565b5085935050505092915050565b60006020820190508181036000830152611f538184611edb565b905092915050565b60008060408385031215611f7257611f71611ba5565b5b6000611f8085828601611e39565b9250506020611f9185828601611d16565b9150509250929050565b60008115159050919050565b611fb081611f9b565b82525050565b6000602082019050611fcb6000830184611fa7565b92915050565b600060208284031215611fe757611fe6611ba5565b5b6000611ff584828501611d16565b91505092915050565b61200781611cf5565b82525050565b60006020820190506120226000830184611ffe565b92915050565b61203181611e10565b82525050565b600060a08201905061204c6000830188611ffe565b6120596020830187612028565b6120666040830186611ffe565b6120736060830185611ffe565b6120806080830184611fa7565b9695505050505050565b600081519050919050565b600082825260208201905092915050565b6000819050602082019050919050565b6120bf81611e10565b82525050565b600081519050919050565b600082825260208201905092915050565b60005b838110156120ff5780820151818401526020810190506120e4565b60008484015250505050565b6000612116826120c5565b61212081856120d0565b93506121308185602086016120e1565b61213981611bb9565b840191505092915050565b61214d81611f9b565b82525050565b60006101208301600083015161216c6000860182611ea7565b50602083015161217f60208601826120b6565b5060408301516121926040860182611ea7565b50606083015184820360608601526121aa828261210b565b915050608083015184820360808601526121c4828261210b565b91505060a08301516121d960a0860182611ea7565b5060c08301516121ec60c0860182611ea7565b5060e08301516121ff60e0860182611ea7565b50610100830151612214610100860182612144565b508091505092915050565b600061222b8383612153565b905092915050565b6000602082019050919050565b600061224b8261208a565b6122558185612095565b935083602082028501612267856120a6565b8060005b858110156122a35784840389528151612284858261221f565b945061228f83612233565b925060208a0199505060018101905061226b565b50829750879550505050505092915050565b600060208201905081810360008301526122cf8184612240565b905092915050565b6000610120830160008301516122f06000860182611ea7565b50602083015161230360208601826120b6565b5060408301516123166040860182611ea7565b506060830151848203606086015261232e828261210b565b91505060808301518482036080860152612348828261210b565b91505060a083015161235d60a0860182611ea7565b5060c083015161237060c0860182611ea7565b5060e083015161238360e0860182611ea7565b50610100830151612398610100860182612144565b508091505092915050565b600060208201905081810360008301526123bd81846122d7565b905092915050565b600082825260208201905092915050565b60006123e1826120c5565b6123eb81856123c5565b93506123fb8185602086016120e1565b61240481611bb9565b840191505092915050565b600061012082019050612425600083018c611ffe565b612432602083018b612028565b61243f604083018a611ffe565b818103606083015261245181896123d6565b9050818103608083015261246581886123d6565b905061247460a0830187611ffe565b61248160c0830186611ffe565b61248e60e0830185611ffe565b61249c610100830184611fa7565b9a9950505050505050505050565b600081905092915050565b7f6461790000000000000000000000000000000000000000000000000000000000600082015250565b60006124eb6003836124aa565b91506124f6826124b5565b600382019050919050565b600061250c826124de565b9150819050919050565b6000612521826120c5565b61252b81856124aa565b935061253b8185602086016120e1565b80840191505092915050565b60006125538284612516565b915081905092915050565b7f7765656b00000000000000000000000000000000000000000000000000000000600082015250565b60006125946004836124aa565b915061259f8261255e565b600482019050919050565b60006125b582612587565b9150819050919050565b7f6d6f6e7468000000000000000000000000000000000000000000000000000000600082015250565b60006125f56005836124aa565b9150612600826125bf565b600582019050919050565b6000612616826125e8565b9150819050919050565b7f496e76616c696420737562736372697074696f6e20706572696f640000000000600082015250565b6000612656601b836123c5565b915061266182612620565b602082019050919050565b6000602082019050818103600083015261268581612649565b9050919050565b7f4e487b7100000000000000000000000000000000000000000000000000000000600052602260045260246000fd5b600060028204905060018216806126d357607f821691505b6020821081036126e6576126e561268c565b5b50919050565b60008190508160005260206000209050919050565b60006020601f8301049050919050565b600082821b905092915050565b60006008830261274e7fffffffffffffffffffffffffffffffffffffffffffffffffffffffffffffffff82612711565b6127588683612711565b95508019841693508086168417925050509392505050565b6000819050919050565b600061279561279061278b84611cf5565b612770565b611cf5565b9050919050565b6000819050919050565b6127af8361277a565b6127c36127bb8261279c565b84845461271e565b825550505050565b600090565b6127d86127cb565b6127e38184846127a6565b505050565b5b81811015612807576127fc6000826127d0565b6001810190506127e9565b5050565b601f82111561284c5761281d816126ec565b61282684612701565b81016020851015612835578190505b61284961284185612701565b8301826127e8565b50505b505050565b600082821c905092915050565b600061286f60001984600802612851565b1980831691505092915050565b6000612888838361285e565b9150826002028217905092915050565b6128a1826120c5565b67ffffffffffffffff8111156128ba576128b9611bca565b5b6128c482546126bb565b6128cf82828561280b565b600060209050601f83116001811461290257600084156128f0578287015190505b6128fa858261287c565b865550612962565b601f198416612910866126ec565b60005b8281101561293857848901518255600182019150602085019450602081019050612913565b868310156129555784890151612951601f89168261285e565b8355505b6001600288020188555050505b505050505050565b600060c08201905061297f6000830189611ffe565b818103602083015261299181886123d6565b905081810360408301526129a581876123d6565b90506129b46060830186611ffe565b6129c16080830185611ffe565b6129ce60a0830184611ffe565b979650505050505050565b7f4e487b7100000000000000000000000000000000000000000000000000000000600052601160045260246000fd5b6000612a1382611cf5565b91507fffffffffffffffffffffffffffffffffffffffffffffffffffffffffffffffff8203612a4557612a446129d9565b5b600182019050919050565b7f4e6f742073756273637269626564000000000000000000000000000000000000600082015250565b6000612a86600e836123c5565b9150612a9182612a50565b602082019050919050565b60006020820190508181036000830152612ab581612a79565b9050919050565b6000612ac782611cf5565b915060008203612ada57612ad96129d9565b5b600182039050919050565b7f4e487b7100000000000000000000000000000000000000000000000000000000600052603260045260246000fd5b7f496e636f727265637420737562736372697074696f6e20666565000000000000600082015250565b6000612b4a601a836123c5565b9150612b5582612b14565b602082019050919050565b60006020820190508181036000830152612b7981612b3d565b9050919050565b7f416c726561647920737562736372696265640000000000000000000000000000600082015250565b6000612bb66012836123c5565b9150612bc182612b80565b602082019050919050565b60006020820190508181036000830152612be581612ba9565b9050919050565b60008154612bf9816126bb565b612c0381866124aa565b94506001821660008114612c1e5760018114612c3357612c66565b60ff1983168652811515820286019350612c66565b612c3c856126ec565b60005b83811015612c5e57815481890152600182019150602081019050612c3f565b838801955050505b50505092915050565b6000612c7b8284612bec565b915081905092915050565b6000612c9182611cf5565b9150612c9c83611cf5565b9250828201905080821115612cb457612cb36129d9565b5b92915050565b60008154612cc7816126bb565b612cd181866123c5565b94506001821660008114612cec5760018114612d0257612d35565b60ff198316865281151560200286019350612d35565b612d0b856126ec565b60005b83811015612d2d57815481890152600182019150602081019050612d0e565b808801955050505b50505092915050565b6000608082019050612d536000830187611ffe565b8181036020830152612d658186612cba565b9050612d746040830185611ffe565b612d816060830184611ffe565b95945050505050565b60006040820190508181036000830152612da481856123d6565b90508181036020830152612db881846123d6565b90509392505050565b60006040820190508181036000830152612ddb81856123d6565b9050612dea6020830184612028565b9392505050565b7f4e487b7100000000000000000000000000000000000000000000000000000000600052605160045260246000fdfea2646970667358221220a58a10a68db5b3730b3530d28e9523fab7cbe190f89a4d911f57e9a4228392a964736f6c634300081c0033",
  "linkReferences": {},
  "deployedLinkReferences": {}
}