{
  "_format": "hh-sol-artifact-1",
  "contractName": "TradingAlgoAVS",
  "sourceName": "contracts/TradingAlgoAVS.sol",
  "abi": [
    {
      "anonymous": false,
      "inputs": [
        {
          "indexed": true,
          "internalType": "uint256",
          "name": "strategyId",
          "type": "uint256"
        },
        {
          "indexed": true,
          "internalType": "address",
          "name": "provider",
          "type": "address"
        },
        {
          "indexed": false,
          "internalType": "uint256",
          "name": "subscriptionFee",
          "type": "uint256"
        },
        {
          "indexed": false,
          "internalType": "string",
          "name": "subscriptionPeriod",
          "type": "string"
        },
        {
          "indexed": false,
          "internalType": "string",
          "name": "strategyUid",
          "type": "string"
        },
        {
          "indexed": false,
          "internalType": "uint256",
          "name": "roi",
          "type": "uint256"
        },
        {
          "indexed": false,
          "internalType": "uint256",
          "name": "profitability",
          "type": "uint256"
        },
        {
          "indexed": false,
          "internalType": "uint256",
          "name": "risk",
          "type": "uint256"
        }
      ],
      "name": "StrategyCreated",
      "type": "event"
    },
    {
      "inputs": [
        {
          "internalType": "string",
          "name": "_strategyUid",
          "type": "string"
        },
        {
          "internalType": "uint256",
          "name": "_subscriptionFee",
          "type": "uint256"
        },
        {
          "internalType": "string",
          "name": "_subscriptionPeriod",
          "type": "string"
        },
        {
          "internalType": "uint256",
          "name": "_roi",
          "type": "uint256"
        },
        {
          "internalType": "uint256",
          "name": "_profitability",
          "type": "uint256"
        },
        {
          "internalType": "uint256",
          "name": "_risk",
          "type": "uint256"
        }
      ],
      "name": "createStrategy",
      "outputs": [],
      "stateMutability": "nonpayable",
      "type": "function"
    },
    {
      "inputs": [
        {
          "internalType": "uint256",
          "name": "_id",
          "type": "uint256"
        }
      ],
      "name": "getStrategy",
      "outputs": [
        {
          "components": [
            {
              "internalType": "uint256",
              "name": "id",
              "type": "uint256"
            },
            {
              "internalType": "address",
              "name": "provider",
              "type": "address"
            },
            {
              "internalType": "uint256",
              "name": "subscriptionFee",
              "type": "uint256"
            },
            {
              "internalType": "string",
              "name": "subscriptionPeriod",
              "type": "string"
            },
            {
              "internalType": "string",
              "name": "strategyUid",
              "type": "string"
            },
            {
              "internalType": "uint256",
              "name": "roi",
              "type": "uint256"
            },
            {
              "internalType": "uint256",
              "name": "profitability",
              "type": "uint256"
            },
            {
              "internalType": "uint256",
              "name": "risk",
              "type": "uint256"
            },
            {
              "internalType": "bool",
              "name": "active",
              "type": "bool"
            }
          ],
          "internalType": "struct TradingAlgoAVS.Strategy",
          "name": "",
          "type": "tuple"
        }
      ],
      "stateMutability": "view",
      "type": "function"
    },
    {
      "inputs": [
        {
          "internalType": "uint256",
          "name": "",
          "type": "uint256"
        }
      ],
      "name": "strategies",
      "outputs": [
        {
          "internalType": "uint256",
          "name": "id",
          "type": "uint256"
        },
        {
          "internalType": "address",
          "name": "provider",
          "type": "address"
        },
        {
          "internalType": "uint256",
          "name": "subscriptionFee",
          "type": "uint256"
        },
        {
          "internalType": "string",
          "name": "subscriptionPeriod",
          "type": "string"
        },
        {
          "internalType": "string",
          "name": "strategyUid",
          "type": "string"
        },
        {
          "internalType": "uint256",
          "name": "roi",
          "type": "uint256"
        },
        {
          "internalType": "uint256",
          "name": "profitability",
          "type": "uint256"
        },
        {
          "internalType": "uint256",
          "name": "risk",
          "type": "uint256"
        },
        {
          "internalType": "bool",
          "name": "active",
          "type": "bool"
        }
      ],
      "stateMutability": "view",
      "type": "function"
    }
  ],
  "bytecode": "0x6080604052348015600f57600080fd5b506118ff8061001f6000396000f3fe608060405234801561001057600080fd5b50600436106100415760003560e01c806313cf621114610046578063cfc0cc3414610062578063d574ea3d14610092575b600080fd5b610060600480360381019061005b9190610e3a565b6100ca565b005b61007c60048036038101906100779190610eff565b610609565b60405161008991906110e2565b60405180910390f35b6100ac60048036038101906100a79190610eff565b6107fe565b6040516100c19998979695949392919061117b565b60405180910390f35b6101096040518060400160405280601e81526020017f4372656174696e672073747261746567792077697468205549443a202573000081525087610989565b6101486040518060400160405280601481526020017f537562736372697074696f6e204665653a20257300000000000000000000000081525086610a25565b6101876040518060400160405280601781526020017f537562736372697074696f6e20506572696f643a20257300000000000000000081525085610989565b6101c66040518060400160405280600781526020017f524f493a2025730000000000000000000000000000000000000000000000000081525084610a25565b6102056040518060400160405280601181526020017f50726f6669746162696c6974793a20257300000000000000000000000000000081525083610a25565b6102446040518060400160405280600881526020017f5269736b3a20257300000000000000000000000000000000000000000000000081525082610a25565b6102836040518060400160405280601281526020017f53656e64657220416464726573733a202573000000000000000000000000000081525033610ac1565b6040516020016102929061126d565b60405160208183030381529060405280519060200120846040516020016102b991906112b3565b60405160208183030381529060405280519060200120148061032457506040516020016102e590611316565b604051602081830303815290604052805190602001208460405160200161030c91906112b3565b60405160208183030381529060405280519060200120145b80610378575060405160200161033990611377565b604051602081830303815290604052805190602001208460405160200161036091906112b3565b60405160208183030381529060405280519060200120145b6103b7576040517f08c379a00000000000000000000000000000000000000000000000000000000081526004016103ae906113d8565b60405180910390fd5b6103d86040518060600160405280602581526020016118a560259139610b5d565b60405180610120016040528060005481526020013373ffffffffffffffffffffffffffffffffffffffff1681526020018681526020018581526020018781526020018481526020018381526020018281526020016001151581525060016000805481526020019081526020016000206000820151816000015560208201518160010160006101000a81548173ffffffffffffffffffffffffffffffffffffffff021916908373ffffffffffffffffffffffffffffffffffffffff1602179055506040820151816002015560608201518160030190816104b79190611604565b5060808201518160040190816104cd9190611604565b5060a0820151816005015560c0820151816006015560e082015181600701556101008201518160080160006101000a81548160ff0219169083151502179055509050506105516040518060400160405280601b81526020017f53747261746567792073746f72656420776974682049443a2025730000000000815250600054610a25565b3373ffffffffffffffffffffffffffffffffffffffff166000547f4d33db09ba257b965787875294cb3ccc93f4e0cac7ddc5d287960399425ab5e187878a8888886040516105a4969594939291906116d6565b60405180910390a36105ea6040518060400160405280601c81526020017f5374726174656779206372656174696f6e20636f6d706c657465642100000000815250610b5d565b6000808154809291906105fc90611774565b9190505550505050505050565b610611610c3c565b6001600083815260200190815260200160002060405180610120016040529081600082015481526020016001820160009054906101000a900473ffffffffffffffffffffffffffffffffffffffff1673ffffffffffffffffffffffffffffffffffffffff1673ffffffffffffffffffffffffffffffffffffffff168152602001600282015481526020016003820180546106aa90611427565b80601f01602080910402602001604051908101604052809291908181526020018280546106d690611427565b80156107235780601f106106f857610100808354040283529160200191610723565b820191906000526020600020905b81548152906001019060200180831161070657829003601f168201915b5050505050815260200160048201805461073c90611427565b80601f016020809104026020016040519081016040528092919081815260200182805461076890611427565b80156107b55780601f1061078a576101008083540402835291602001916107b5565b820191906000526020600020905b81548152906001019060200180831161079857829003601f168201915b505050505081526020016005820154815260200160068201548152602001600782015481526020016008820160009054906101000a900460ff1615151515815250509050919050565b60016020528060005260406000206000915090508060000154908060010160009054906101000a900473ffffffffffffffffffffffffffffffffffffffff169080600201549080600301805461085390611427565b80601f016020809104026020016040519081016040528092919081815260200182805461087f90611427565b80156108cc5780601f106108a1576101008083540402835291602001916108cc565b820191906000526020600020905b8154815290600101906020018083116108af57829003601f168201915b5050505050908060040180546108e190611427565b80601f016020809104026020016040519081016040528092919081815260200182805461090d90611427565b801561095a5780601f1061092f5761010080835404028352916020019161095a565b820191906000526020600020905b81548152906001019060200180831161093d57829003601f168201915b5050505050908060050154908060060154908060070154908060080160009054906101000a900460ff16905089565b610a21828260405160240161099f9291906117bc565b6040516020818303038152906040527f4b5c4277000000000000000000000000000000000000000000000000000000007bffffffffffffffffffffffffffffffffffffffffffffffffffffffff19166020820180517bffffffffffffffffffffffffffffffffffffffffffffffffffffffff8381831617835250505050610bf6565b5050565b610abd8282604051602401610a3b9291906117f3565b6040516020818303038152906040527fb60e72cc000000000000000000000000000000000000000000000000000000007bffffffffffffffffffffffffffffffffffffffffffffffffffffffff19166020820180517bffffffffffffffffffffffffffffffffffffffffffffffffffffffff8381831617835250505050610bf6565b5050565b610b598282604051602401610ad7929190611823565b6040516020818303038152906040527f319af333000000000000000000000000000000000000000000000000000000007bffffffffffffffffffffffffffffffffffffffffffffffffffffffff19166020820180517bffffffffffffffffffffffffffffffffffffffffffffffffffffffff8381831617835250505050610bf6565b5050565b610bf381604051602401610b719190611853565b6040516020818303038152906040527f41304fac000000000000000000000000000000000000000000000000000000007bffffffffffffffffffffffffffffffffffffffffffffffffffffffff19166020820180517bffffffffffffffffffffffffffffffffffffffffffffffffffffffff8381831617835250505050610bf6565b50565b610c0d81610c05610c10610c31565b63ffffffff16565b50565b60006a636f6e736f6c652e6c6f679050600080835160208501845afa505050565b610ca0819050919050565b60405180610120016040528060008152602001600073ffffffffffffffffffffffffffffffffffffffff1681526020016000815260200160608152602001606081526020016000815260200160008152602001600081526020016000151581525090565b610ca8611875565b565b6000604051905090565b600080fd5b600080fd5b600080fd5b600080fd5b6000601f19601f8301169050919050565b7f4e487b7100000000000000000000000000000000000000000000000000000000600052604160045260246000fd5b610d1182610cc8565b810181811067ffffffffffffffff82111715610d3057610d2f610cd9565b5b80604052505050565b6000610d43610caa565b9050610d4f8282610d08565b919050565b600067ffffffffffffffff821115610d6f57610d6e610cd9565b5b610d7882610cc8565b9050602081019050919050565b82818337600083830152505050565b6000610da7610da284610d54565b610d39565b905082815260208101848484011115610dc357610dc2610cc3565b5b610dce848285610d85565b509392505050565b600082601f830112610deb57610dea610cbe565b5b8135610dfb848260208601610d94565b91505092915050565b6000819050919050565b610e1781610e04565b8114610e2257600080fd5b50565b600081359050610e3481610e0e565b92915050565b60008060008060008060c08789031215610e5757610e56610cb4565b5b600087013567ffffffffffffffff811115610e7557610e74610cb9565b5b610e8189828a01610dd6565b9650506020610e9289828a01610e25565b955050604087013567ffffffffffffffff811115610eb357610eb2610cb9565b5b610ebf89828a01610dd6565b9450506060610ed089828a01610e25565b9350506080610ee189828a01610e25565b92505060a0610ef289828a01610e25565b9150509295509295509295565b600060208284031215610f1557610f14610cb4565b5b6000610f2384828501610e25565b91505092915050565b610f3581610e04565b82525050565b600073ffffffffffffffffffffffffffffffffffffffff82169050919050565b6000610f6682610f3b565b9050919050565b610f7681610f5b565b82525050565b600081519050919050565b600082825260208201905092915050565b60005b83811015610fb6578082015181840152602081019050610f9b565b60008484015250505050565b6000610fcd82610f7c565b610fd78185610f87565b9350610fe7818560208601610f98565b610ff081610cc8565b840191505092915050565b60008115159050919050565b61101081610ffb565b82525050565b60006101208301600083015161102f6000860182610f2c565b5060208301516110426020860182610f6d565b5060408301516110556040860182610f2c565b506060830151848203606086015261106d8282610fc2565b915050608083015184820360808601526110878282610fc2565b91505060a083015161109c60a0860182610f2c565b5060c08301516110af60c0860182610f2c565b5060e08301516110c260e0860182610f2c565b506101008301516110d7610100860182611007565b508091505092915050565b600060208201905081810360008301526110fc8184611016565b905092915050565b61110d81610e04565b82525050565b61111c81610f5b565b82525050565b600082825260208201905092915050565b600061113e82610f7c565b6111488185611122565b9350611158818560208601610f98565b61116181610cc8565b840191505092915050565b61117581610ffb565b82525050565b600061012082019050611191600083018c611104565b61119e602083018b611113565b6111ab604083018a611104565b81810360608301526111bd8189611133565b905081810360808301526111d18188611133565b90506111e060a0830187611104565b6111ed60c0830186611104565b6111fa60e0830185611104565b61120861010083018461116c565b9a9950505050505050505050565b600081905092915050565b7f6461790000000000000000000000000000000000000000000000000000000000600082015250565b6000611257600383611216565b915061126282611221565b600382019050919050565b60006112788261124a565b9150819050919050565b600061128d82610f7c565b6112978185611216565b93506112a7818560208601610f98565b80840191505092915050565b60006112bf8284611282565b915081905092915050565b7f7765656b00000000000000000000000000000000000000000000000000000000600082015250565b6000611300600483611216565b915061130b826112ca565b600482019050919050565b6000611321826112f3565b9150819050919050565b7f6d6f6e7468000000000000000000000000000000000000000000000000000000600082015250565b6000611361600583611216565b915061136c8261132b565b600582019050919050565b600061138282611354565b9150819050919050565b7f496e76616c696420737562736372697074696f6e20706572696f640000000000600082015250565b60006113c2601b83611122565b91506113cd8261138c565b602082019050919050565b600060208201905081810360008301526113f1816113b5565b9050919050565b7f4e487b7100000000000000000000000000000000000000000000000000000000600052602260045260246000fd5b6000600282049050600182168061143f57607f821691505b602082108103611452576114516113f8565b5b50919050565b60008190508160005260206000209050919050565b60006020601f8301049050919050565b600082821b905092915050565b6000600883026114ba7fffffffffffffffffffffffffffffffffffffffffffffffffffffffffffffffff8261147d565b6114c4868361147d565b95508019841693508086168417925050509392505050565b6000819050919050565b60006115016114fc6114f784610e04565b6114dc565b610e04565b9050919050565b6000819050919050565b61151b836114e6565b61152f61152782611508565b84845461148a565b825550505050565b600090565b611544611537565b61154f818484611512565b505050565b5b818110156115735761156860008261153c565b600181019050611555565b5050565b601f8211156115b85761158981611458565b6115928461146d565b810160208510156115a1578190505b6115b56115ad8561146d565b830182611554565b50505b505050565b600082821c905092915050565b60006115db600019846008026115bd565b1980831691505092915050565b60006115f483836115ca565b9150826002028217905092915050565b61160d82610f7c565b67ffffffffffffffff81111561162657611625610cd9565b5b6116308254611427565b61163b828285611577565b600060209050601f83116001811461166e576000841561165c578287015190505b61166685826115e8565b8655506116ce565b601f19841661167c86611458565b60005b828110156116a45784890151825560018201915060208501945060208101905061167f565b868310156116c157848901516116bd601f8916826115ca565b8355505b6001600288020188555050505b505050505050565b600060c0820190506116eb6000830189611104565b81810360208301526116fd8188611133565b905081810360408301526117118187611133565b90506117206060830186611104565b61172d6080830185611104565b61173a60a0830184611104565b979650505050505050565b7f4e487b7100000000000000000000000000000000000000000000000000000000600052601160045260246000fd5b600061177f82610e04565b91507fffffffffffffffffffffffffffffffffffffffffffffffffffffffffffffffff82036117b1576117b0611745565b5b600182019050919050565b600060408201905081810360008301526117d68185611133565b905081810360208301526117ea8184611133565b90509392505050565b6000604082019050818103600083015261180d8185611133565b905061181c6020830184611104565b9392505050565b6000604082019050818103600083015261183d8185611133565b905061184c6020830184611113565b9392505050565b6000602082019050818103600083015261186d8184611133565b905092915050565b7f4e487b7100000000000000000000000000000000000000000000000000000000600052605160045260246000fdfe50617373656420737562736372697074696f6e20706572696f642076616c69646174696f6ea264697066735822122016315b4d63655b01aae047f897840677fc156c00a73b18e5beac1d328db10a4064736f6c634300081c0033",
  "linkReferences": {},
  "deployedLinkReferences": {}
}